:060000000204CC02100313
:03000B0002100BD5
:03001300021013C5
:03001B0002101BB5
:03002300021023A5
:03002B0002102B95
:0300330002103385
:03003B0002103B75
:0300430002104365
:03004B0002104B55
:0300530002105345
:03005B0002105B35
:0300630002106325
:03006B0002106B15
:0300730002107305
:03007B0002107BF5
:03008300021083E5
:03008B0002108BD5
:03009300021093C5
:03009B0002109BB5
:0300A3000210A3A5
:0300AB000210AB95
:0300B3000210B385
:0300BB000210BB75
:0300C3000210C365
:0300CB000210CB55
:0300D3000210D345
:0300DB000210DB35
:0300E3000210E325
:0300EB000210EB15
:0300F3000210F305
:0300FB000210FBF5
:03010300021103E3
:03010B0002110BD3
:03011300021113C3
:03011B0002111BB3
:03012300021123A3
:03012B0002112B93
:0301330002113383
:03013B0002113B73
:0301430002114363
:03014B0002114B53
:0301530002115343
:03015B0002115B33
:0301630002116323
:03016B0002116B13
:0301730002117303
:03017B0002117BF3
:03018300021183E3
:03018B0002118BD3
:03019300021193C3
:03019B0002119BB3
:0301A3000211A3A3
:0301AB000211AB93
:0301B3000211B383
:0301BB000211BB73
:0301C3000211C363
:0301CB000211CB53
:0301D3000211D343
:0301DB000211DB33
:0301E3000211E323
:0301EB000211EB13
:0301F3000211F303
:1001FB000211FBCA3B2000030202F47EA300227E05
:10020B00B300247C6B6C777EB300230A1B4D137EEB
:10021B00B300250A3B7D237D317EB300267CCB6C5E
:10022B00DD7D714D625E6400017EB30027F5087EB3
:10023B003400287A350A750C007509002EA05F680A
:10024B00261BA0684E1BA068761BA078030202E158
:10025B000BA268030202E674027AB30121E47AB3BB
:10026B00012275090280778508097E3401218012ED
:10027B007F130B3C12051A7E350A7A39B07E350A8C
:10028B000B347A350A7EA1087CBA14F5084CAA788F
:10029B00DF804B801C7F137E150A7E19B012041E63
:1002AB004005750C0380370B3C7E350A0B347A35D1
:1002BB000A7EA1087CBA14F5084CAA78D8801F9F37
:1002CB00337F131204562E3802006D337E24000246
:1002DB00BF3140ED800875C72080FE750C01E50C21
:1002EB007E71091203D3120503DA3B22CA3B53B1C9
:1002FB00FB7E74FE137E64007E7E3BB044047A3B2F
:10030B00B00000000012050FA2B2E43368407E1467
:10031B00CD347E0412AB901FFC693E00020BEA2029
:10032B00BF10682A901000E493B402227E341001AF
:10033B007E2400FF0B1A30BE341003401143B1046E
:10034B00E47A3BB07E3410007E2400FF991843B151
:10035B0004E47A3BB09F11901FFC793E00021BEA2C
:10036B0020DA3B22309860C298E5997CAB2510F5DA
:10037B0010E50F14681D14682414683B1468400BB7
:10038B00B278447AA110BEA023780474018001E4F2
:10039B00F50F227AA30021750E00050F227E710E38
:1003AB007CB704F50E0A3719A300227EB30021BED9
:1003BB00B10E3813050F22BEA02478C7050F22E516
:1003CB001070C0D200050F22CAD8CA797CF77CEB1B
:1003DB0074401204F67CDB7CBE1204F62CDB7CB77B
:1003EB001204F62CDB4CF768156CEE800D0A3E09F7
:1003FB00B301211204F62CDB0BE0BCFE38EF7424A6
:10040B001204F62CDBE49CBD1204F63099FDDA796C
:10041B00DAD822CA3BF50D7F3112047D4003C3802D
:10042B002775C5027CBD5401F5F67CBEF5C37CBFB8
:10043B00F5C4850DC275C65A75C6A500000000E54A
:10044B00C720E403D38001C3DA3B22CA3B7F3112BE
:10045B00047D501B75C5037CBD5401F5F67CBEF5C0
:10046B00C37CBFF5C475C65A75C6A500000000DA7B
:10047B003B227F215E4400016D337E240001BF21AE
:10048B00400C7E3410007E240001BF214002D32299
:10049B00C32275E90075EA00A9D7BAE5A2543F4417
:1004AB00C0F5A253B4E753B3E722A9C08E75985297
:1004BB0053890FA9D68E758BDC758DFFD28E0205F5
:1004CB00037584017E44041FE47A49B01B4478F918
:1004DB007EF802200204E21202F712049D1204B508
:1004EB0012052112036F1201FE80F87CAB3099FDCF
:1004FB00C2997AA1997CBA22C200750E00750F00C1
:10050B00751000226D330B34BE34138848F8224E1D
:0D051B0050FE7E1BB02275C78075F52122B1
:00000001FF
